:020000040800F2
:10000000680E00203102000851450008413E0008FA
:100010004D45000855060008FD7800080000000066
:10002000000000000000000000000000D5450008AE
:10003000A508000800000000D14500085D46000842
:100040004B0200084B0200084B0200084B0200085C
:100050004B0200084B0200084B0200084B0200084C
:100060004B0200084B0200084B0200084B0200083C
:100070004B0200084B0200084B0200084B0200082C
:100080004B0200084B0200084B0200084B0200081C
:100090004B0200084B0200084B0200084B0200080C
:1000A0004B0200084B0200084B0200084B020008FC
:1000B0004B0200084B0200084B0200084B020008EC
:1000C0004B0200084B0200084B0200084B020008DC
:1000D0004B0200084B0200084B0200084B020008CC
:1000E0004B0200084B0200084B0200084B020008BC
:1000F0004B0200084B0200084B0200084B020008AC
:100100004B0200084B0200084B0200084B0200089B
:100110004B0200084B0200084B0200084B0200088B
:100120004B0200084B0200084B0200084B0200087B
:100130004B0200084B0200084B0200084B0200086B
:100140004B0200084B0200084B020008C1450008A2
:100150004B0200084B0200084B0200084B0200084B
:100160004B0200084B0200084B0200084B0200083B
:100170004B0200084B0200084B0200080000000080
:100180004B0200084B02000800F002F800F040F8B3
:100190000AA090E8000C82448344AAF10107DA45E2
:1001A00001D100F035F8AFF2090EBAE80F0013F0F4
:1001B000010F18BFFB1A43F00103184768780000CD
:1001C00088780000103A24BF78C878C1FAD852075E
:1001D00024BF30C830C144BF04680C6070470000C1
:1001E0000023002400250026103A28BF78C1FBD840
:1001F000520728BF30C148BF0B6070471FB507F0DA
:10020000F5FB9DE8030000F047F91FBD10B510BDD8
:1002100000F09EF91146FFF7F1FF07F0D1FB00F067
:10022000BCF903B4FFF7F2FF03BC00F0EDF90000E6
:100230000948804709480047FEE7FEE7FEE7FEE77A
:10024000FEE7FEE7FEE7FEE7FEE7FEE704480549B6
:10025000054A064B70470000254700088901000841
:1002600068080020680E0020680A0020680A002044
:1002700070B5064600F0F4F8056806F10B0020F0B2
:100280000704B4429CBF002070BD2B466A68BAB117
:100290001068A04210D304F1080188423CBF5068A6
:1002A000586007D35168101941601168091B01603B
:1002B00058601460101D70BD13465268002AE7D1C3
:1002C0002146284600F0D4F80028DED170BD70B574
:1002D0000446051F00F0C4F80068002C14BF4468F1
:1002E00070BD002C18BFAC423CBF20466468F8D3F8
:1002F00001680A18AA4218BF456003D12A6805465A
:100300001144016028684119A1421CBF6C6070BD96
:100310006168696021680844286070BD53EA020C76
:1003200000F069802DE9F04B4FF00006002B1FBF55
:10033000B3FA83F503FA05F424FA05F65E4012BF1A
:100340001643B2FA82F502FA05F4C5F120051EBF84
:1003500022FA05FC44EA0C04203556EA044C4FEA24
:10036000144418BF641C4FF000084FF0000990427D
:1003700071EB030C39D3002919BFB1FA81F701FAE7
:1003800007F6B0FA80F700FA07F6C7F120071EBF9C
:1003900020FA07FC46EA0C062037B6FBF4FCA7EB74
:1003A0000507103F07F01F0BCBF120062CFA06F6CD
:1003B0000CFA0BFB44BFB3460026202FA4BF5E46B9
:1003C0004FF0000B5BEA060C08BF4FF0010B19EB76
:1003D0000B0948EB0608ABFB027C06FB02CC0BFBCF
:1003E00003CCC01B71EB0C01C1E70B460246414632
:1003F0004846BDE8F08B13B5084318BF4FF0FF30F7
:100400000146AFF30080BDE81C4070474FF000028A
:1004100000B5134694469646203922BFA0E80C50FA
:10042000A0E80C50B1F12001BFF4F7AF090728BFD5
:10043000A0E80C5048BF0CC05DF804EB890028BF51
:1004400040F8042B08BF704748BF20F8022B11F07A
:10045000804F18BF00F8012B7047704770477047F6
:100460000048704738000020704770477047704759
:1004700038B504460A4600206946AFF300800028DC
:1004800008BF38BD02460099204600F03FF8012021
:1004900038BD012000F054B8F8B5AFF30080054630
:1004A00000200C46102000BF0646A819A0420DD916
:1004B000324669460020AFF30080070008BF00F015
:1004C0003FF80098A04218BF0546C419FFF7C8FFBF
:1004D00005600746F01D20F007004619284600F089
:1004E0000AF8B44208BFF8BDA21B31463868BDE81F
:1004F000F84000F00BB800210160C0E9011070471E
:1005000010207047004870473000002003464068C4
:100510008C46002818BF88423CBF03464068F8D389
:1005200018681844884207D00CF1030020F0070037
:10053000001D411A521A0146081D0A60FFF7C7BE86
:1005400010B500F039F8BDE8104000F02FB8704742
:100550007546FFF7D7FFAE4605006946534620F0C3
:100560000700854618B020B5FFF770FEBDE82040B3
:100570004FF000064FF000074FF000084FF0000B5F
:10058000AC46ACE8C009ACE8C009ACE8C009ACE8CE
:10059000C00921F007018D46704710B50446AFF33E
:1005A00000802046BDE81040FFF73BBE002801D088
:1005B00000F02AB87047000010B5012805D00021CE
:1005C00003A000F027F8012010BD09A1F8E7000002
:1005D00053494752544D454D3A204F7574206F662C
:1005E0002068656170206D656D6F72790000000094
:1005F0003A2048656170206D656D6F727920636F78
:10060000727275707465640001491820ABBEFEE714
:100610002600020070B505460C460A2000E06D1C5D
:1006200000F011F835B128780028F8D102E0641CF8
:1006300000F009F814B120780028F8D1BDE8704026
:100640000A20AFF3008008B569468DF8000003204A
:10065000ABBE08BDFFE7FEE780B586B00590059804
:10066000D0F87C03C069049000208DF80F00049836
:1006700090F84E0001460191032804D0FFE701984D
:1006800004280CD042E00598049B196A5A8B1B7B06
:1006900004F076F80499042081F84E0037E00598BC
:1006A0000499097B05F032FA8DF80F009DF80F00D0
:1006B00001282AD1FFE705980499097B05F0ECF998
:1006C00002900498806A0299401AA8B1FFE7029844
:1006D0000499498B88420FD9FFE7029A0499886AE6
:1006E000801A8862029A0499086A10440862049980
:1006F000032081F84E0007E00499002081F84E00A5
:10070000059804F0FFFAFFE7FFE700E0FFE706B017
:1007100080BD000080B586B005900598D0F87C03B8
:10072000C069049000208DF80F00049890F84D00E7
:1007300001460291012804D0FFE70298022825D043
:1007400063E00499486A098B88420DD9FFE7059850
:10075000049BD9691A8B5B7BEE464FF0010CCEF8F7
:1007600000C004F02DF80CE00598049BD9699A8C20
:100770005B7BEE464FF0010CCEF800C004F020F891
:10078000FFE70499022081F84D003FE005980499A5
:10079000497B05F0BBF98DF80F009DF80F0001288B
:1007A00027D1FFE70499486A098B88420BD9FFE7F4
:1007B00004990A8B486A801A486204990A8BC869AE
:1007C0001044C86103E0049900204862FFE70498E0
:1007D000406A28B1FFE70499012081F84D0007E045
:1007E0000499002081F84D00059804F095FAFFE780
:1007F0000AE09DF80F00022805D1FFE704990120C7
:1008000081F84D00FFE7FFE700E0FFE706B080BD9D
:1008100082B00190002000900090FFE700980F2820
:100820000CD8FFE70198009900EB81010020C1F886
:100830008403FFE7009801300090EFE7002000906C
:10084000FFE700990020B0EB512F0BD1FFE7019893
:1008500000990144002081F81C01FFE70098013055
:100860000090EEE701990020087001994870019A04
:1008700001219170019AC2F8C403019A1176019B7B
:1008800040229A71019A5076019A82F81C03019ACB
:1008900082F81D13019981F81F03019981F81E0345
:1008A00002B070477047000081B0EFF3108072B65D
:1008B0000090FFE7FEE7000080B582B00190009154
:1008C0000199A12008740199212048740199002000
:1008D00048820199888201980722C2820198009972
:1008E00004F06EFA02B080BD80B584B0039000F0D1
:1008F00011FA0290039801900198013048B1FFE786
:1009000040F22400C2F200000178019808440190EE
:10091000FFE7FFE700F0FEF90299401A01998842CB
:1009200001D2FFE7F6E704B080BD00008EB00D9065
:100930000C9100200A90099008900B90FFE70B980B
:100940000F2800F2CC81FFE70B99012088400A9024
:100950000C9800680A990840099009980A998842F9
:1009600040F0B881FFE70C98406800F003000128D0
:1009700007D0FFE70C98406800F0030002282FD151
:10098000FFE70D98806808900B984100032000FA5B
:1009900001F10898884308900C98C0680B994900A9
:1009A00000FA01F108980843089008980D998860AA
:1009B0000D98406808900B99012000FA01F1089801
:1009C000884308900C984068C0F300100B9900FA17
:1009D00001F108980843089008980D994860FFE7CE
:1009E0000C98406800F00300032818D0FFE70D982A
:1009F000C06808900B984100032000FA01F10898A4
:100A0000884308900C9880680B99490000FA01F11E
:100A100008980843089008980D99C860FFE70C985B
:100A2000406800F00300022826D1FFE70D980B99DB
:100A30006FF0030202EA51010844006A08900B9823
:100A400000F0070081000F2000FA01F108988843A8
:100A500008900C9800690B9901F00701890000FAD1
:100A600001F108980843089008980D990B9B02EA39
:100A7000530211440862FFE70D98006808900B9834
:100A80004100032000FA01F10898884308900C986F
:100A9000406800F003000B99490000FA01F1089842
:100AA0000843089008980D9908600C988079800791
:100AB000002800F00E81FFE7FFE70020079043F6D3
:100AC0004400C4F20200016841F480410160006802
:100AD00000F4804007900798FFE70B9820F0030090
:100AE00043F60801C4F20101405808900B9800F049
:100AF000030081000F2000FA01F108988843089054
:100B00000D980021C4F20201884203D1FFE70020C2
:100B100006905EE00D9840F20041C4F20201884266
:100B200003D1FFE70120059050E00D9840F6000149
:100B3000C4F20201884203D1FFE70220049042E0A0
:100B40000D9840F60041C4F20201884203D1FFE74C
:100B50000320039034E00D9841F20001C4F2020139
:100B6000884203D1FFE70420029026E00D9841F26D
:100B70000041C4F20201884203D1FFE70520019041
:100B800018E00D9841F60001C4F20201884203D139
:100B9000FFE7062000900AE00D9941F60042C4F2FA
:100BA00002020820914208BF07200090FFE700984A
:100BB0000190FFE701980290FFE702980390FFE79A
:100BC00003980490FFE704980590FFE705980690C6
:100BD000FFE70698C0B20B9901F00301890000FA03
:100BE00001F108980843089008980B9921F0030137
:100BF00043F60802C4F20102885043F60840C4F2EA
:100C000001000068089009990898884308900C989A
:100C10008079C006002805D5FFE7099908980843A0
:100C20000890FFE7089843F60841C4F20101086004
:100C300043F60C40C4F20100006808900999089836
:100C4000884308900C9880798006002805D5FFE736
:100C50000999089808430890FFE7089843F60C4163
:100C6000C4F20101086043F60440C4F201000068C8
:100C7000089009990898884308900C988079800713
:100C8000002805D5FFE70999089808430890FFE771
:100C9000089843F60441C4F20101086043F600409D
:100CA000C4F20100006808900999089888430890E8
:100CB0000C988079C00728B1FFE709990898084384
:100CC0000890FFE7089843F60041C4F2010108606C
:100CD000FFE7FFE7FFE70B9801300B902FE60EB020
:100CE0007047000082B00190ADF802108DF801202D
:100CF0009DF8010028B1FFE7BDF802000199886165
:100D000005E0BDF80200000401998861FFE702B028
:100D10007047000040F66400C2F2000000687047AF
:100D200080B582B001900198D0F8000304F070FE05
:100D300002B080BD80B582B001900198D0F8000368
:100D400004F076FE02B080BD80B582B001900198BB
:100D5000006805F0B1FF02B080BD000080B582B030
:100D600001900198006805F0B1FF02B080BD00005D
:100D700082B001908DF80310019A9DF803002C2198
:100D800010FB012090F8600002B0704782B0019023
:100D90008DF80310019A9DF803002C2110FB01200F
:100DA000006D02B07047000080B584B002908DF8ED
:100DB000071000208DF80600FFE7029890F8F8026F
:100DC000012804D1FFE702208DF80F0016E00299F8
:100DD000012081F8F802FFE7FFE7029800689DF81C
:100DE000071005F08BFFFFE70299002081F8F80259
:100DF000FFE79DF806008DF80F00FFE79DF80F0054
:100E000004B080BDB0B588B094468E4604460E98B6
:100E10000D990C9A06948DF817E08DF816C08DF890
:100E200015308DF814208DF81310ADF81000FFE781
:100E3000069890F8F802012804D1FFE702208DF807
:100E40001F0083E00699012081F8F802FFE7FFE721
:100E500006999DF817002C2210FB0211002081F842
:100E60003D009DF81500069B9DF8171011FB0231FF
:100E700081F83800BDF81000069B9DF8171011FB93
:100E80000231A1F840009DF81700069910FB0211ED
:100E900081F839009DF81300069B9DF8171011FB8F
:100EA000023181F83F009DF8160000F07F00069B9C
:100EB0009DF8171011FB023181F83A009DF81600D9
:100EC000000600280AD5FFE7069A9DF817002C2196
:100ED00010FB0121012081F83B0009E0069A9DF8F2
:100EE00017002C2110FB0121002081F83B00FFE7B7
:100EF0009DF81400069B9DF817102C2211FB02315F
:100F000081F83C00069800689DF817109DF816209F
:100F10009DF815309DF814C09DF81340BDF8105091
:100F2000EE46CEF80850CEF80440CEF800C005F0EA
:100F3000B5FF8DF80F00FFE70699002081F8F80251
:100F4000FFE79DF80F008DF81F00FFE79DF81F00D9
:100F500008B0B0BD82B001908DF803108DF802206A
:100F600002B07047B0B584B094468E4604460B98E4
:100F70000A99099A089A03948DF80BE08DF80AC033
:100F80008DF809308DF80820ADF806108DF80500B1
:100F90009DF80A00039B9DF80B102C2211FB0231D7
:100FA00081F83B009DF80900039B9DF80B1011FB95
:100FB000023181F83F009DF8080098B9FFE70399D6
:100FC0009DF80B002C2210FB0211032081F8420037
:100FD0009DF80500039B9DF80B1011FB023181F871
:100FE0003D0009E0039A9DF80B002C2110FB012124
:100FF000022081F84200FFE79DF8090001460091B8
:10100000032800F2CC800099DFE801F002BF397CB0
:101010009DF80800012831D1FFE79DF80A0068BB60
:10102000FFE7BDF8060050B9FFE7039A9DF80B00F3
:101030002C2110FB0121012081F85500FFE7039AC4
:101040009DF80B002C2110FB012090F8550050B9A1
:10105000FFE7039A9DF80B002C2110FB01210020D3
:1010600081F8420009E0039A9DF80B002C2110FB47
:101070000121022081F84200FFE7FFE790E09DF8A0
:101080000A00F8B9FFE7039A9DF80B002C2110FB2A
:10109000012090F8550050B9FFE7039A9DF80B0026
:1010A0002C2110FB0121002081F8420009E0039A65
:1010B0009DF80B002C2110FB0121022081F8420039
:1010C000FFE71EE0039A9DF80B002C2110FB012086
:1010D00090F8540050B9FFE7039A9DF80B002C21BB
:1010E00010FB0121002081F8420009E0039A9DF8DD
:1010F0000B002C2110FB0121022081F84200FFE7A8
:10110000FFE74DE09DF80A00F8B9FFE7039A9DF864
:101110000B002C2110FB012090F8550050B9FFE77F
:10112000039A9DF80B002C2110FB0121002081F86F
:10113000420009E0039A9DF80B002C2110FB0121CD
:10114000022081F84200FFE71EE0039A9DF80B00A1
:101150002C2110FB012090F8540050B9FFE7039AAE
:101160009DF80B002C2110FB0121002081F842008A
:1011700009E0039A9DF80B002C2110FB01210220AD
:1011800081F84200FFE7FFE70AE0039A9DF80B00B1
:101190002C2110FB0121002081F8420000E0FFE734
:1011A0000998039A9DF80B102C2311FB0321486426
:1011B000BDF80600039A9DF80B1011FB0321C864CB
:1011C00003999DF80B0010FB0311002081F86000CB
:1011D000039A9DF80B1011FB032108659DF80B1075
:1011E000039A11FB032282F83910039A9DF80B1021
:1011F00011FB032181F86100039A10689DF80B1020
:1012000011FB03213831127C05F064FF04B0B0BD3E
:1012100080B586B005900598006804900498039006
:101220000598006805F062FD012840F0DB80FFE7CB
:101230000598006806F092F908B9FFE7D2E0059832
:10124000006806F08BF98002002806D5FFE70598B4
:1012500001684FF400104861FFE70598006806F048
:101260007DF9C002002806D5FFE7059801684FF414
:1012700080104861FFE70598006806F06FF94001AB
:10128000002806D5FFE7059801684FF080604861A7
:10129000FFE70598006806F061F98007002805D58A
:1012A000FFE70598016802204861FFE7059800689C
:1012B00006F054F9800000281CD5FFE70598016866
:1012C0004FF0005048610398D0F84004C00780B93F
:1012D000FFE70498102105F0ABFC049805F068FCCA
:1012E00005980068012106F007F90598FFF722FD2F
:1012F000FFE7FFE70598006806F030F9C001002815
:1013000004D5FFE7059802F085FCFFE70598006823
:1013100006F024F90007002808D5FFE7059800F03B
:1013200089F90598016808204861FFE70598006879
:1013300006F014F900F010010020B0EB111F10D0DE
:10134000FFE705980168886920F01000886105981A
:1013500002F0D2FC05980168886940F010008861AD
:10136000FFE70598006806F0F9F88001002838D5F5
:10137000FFE70598006805F0A3FE019000200290A9
:10138000FFE7029805998968884224D2FFE701980F
:10139000029901F00F01C840C007B8B1FFE70398F8
:1013A000029900EB4110D0F800050004002806D592
:1013B000FFE705989DF8081001F07EFE05E005980E
:1013C0009DF8081002F04CF9FFE7FFE7FFE70298ED
:1013D00001300290D5E7059801684FF00070486130
:1013E000FFE7FFE706B080BD2DE9F04F95B0139001
:1013F000139820B9FFE701208DF8530093E013986C
:1014000000681290139890F8F90240B9FFE7139919
:10141000002081F8F802139800F08AF8FFE713998A
:10142000032081F8F9021298C06BC005002804D48B
:10143000FFE7139900200861FFE71398006805F0A3
:101440003FFB13980B9001680C9141688268C36858
:10145000D0F810C044698569C669076AD0F824804D
:10146000D0F82890D0F82CA0D0F830B0D0F834E0E4
:1014700068460D90C0F824E00C98DDF834E0CEF812
:1014800020B0CEF81CA0CEF81890CEF81480CEF87C
:101490001070CEF80C60CEF80850CEF80440CEF8AC
:1014A00000C005F04DFA139800680121119106F073
:1014B000E3F813980E9001680F9141688268C36841
:1014C000D0F810C044698569C669076AD0F82480DD
:1014D000D0F82890D0F82CA0D0F830B0D0F834E074
:1014E00068461090C0F824E00F98DDF840E0CEF890
:1014F00020B0CEF81CA0CEF81890CEF81480CEF80C
:101500001070CEF80C60CEF80850CEF80440CEF83B
:1015100000C005F01BFF1198139981F8F902002013
:101520008DF85300FFE79DF8530015B0BDE8F08F2C
:1015300080B58CB00B9000200A900990089007901D
:1015400006900B980068B0F1A04F53D1FFE7FFE77A
:101550000020059043F63000C4F20200016841F01B
:1015600001010160006800F0010005900598FFE7A7
:101570004FF4007006900020019007900890002022
:10158000C4F20200029006A90391FFF7CFF9019A75
:10159000029803994FF4E0530693022307930892AD
:1015A00009920A220A92FFF7C1F9FFE743F63401D4
:1015B000C4F20201086840F080000860FFE70020E4
:1015C000049043F64400C4F20200016841F48041F3
:1015D0000160006800F4804004900498FFE7FFE792
:1015E000432000900022114600F0DCFD009800F03E
:1015F000CFFDFFE70CB080BD80B582B001900198AF
:10160000D0F8000304F014FB02B080BD80B582B0B6
:1016100001900198D0F8000304F012FB02B080BDE5
:1016200080B582B001900198006805F0FFFF02B01C
:1016300080BD000080B582B001900198D0F8000311
:1016400004F072FA02B080BD80B582B00090FFE76E
:10165000009890F8F802012804D1FFE702208DF8E5
:10166000070018E00099012081F8F802FFE7FFE782
:1016700000980068012105F05DFA0098006805F007
:101680008DFAFFE70099002081F8F802FFE70020BB
:101690008DF80700FFE79DF8070002B080BD00004D
:1016A00080B582B00090FFE7009890F8F80201281A
:1016B00004D1FFE702208DF8070013E00099012014
:1016C00081F8F802FFE7FFE70098006806F044F8A9
:1016D000FFE70099002081F8F802FFE700208DF86D
:1016E0000700FFE79DF8070002B080BD80B58EB00F
:1016F0000C900C9820B9FFE701208DF8370043E1EA
:101700000C9890F83D0040B9FFE70C99002081F853
:101710003C000C9800F03CF9FFE70C99242081F87C
:101720003D000C980168086820F0010008600C98E2
:101730000168086840F4004008600C980168086877
:1017400020F40040086001F003F80A900C9840680B
:1017500048F2A061C0F2010188420BD8FFE70A9964
:1017600048F28042C0F21E020020914238BF0120A0
:1017700009900AE00A9940F60012C0F23D020020EA
:10178000914238BF01200990FFE70998012804D150
:10179000FFE701208DF83700F6E00A984DF68361E7
:1017A000C4F21B31A0FB0110800C0B900C98006858
:1017B000406820F03F000B9908430C990968486085
:1017C0000C980068006A20F03F0008900C98406870
:1017D00048F2A061C0F20101884204D8FFE70B98EB
:1017E000013007900EE00B984FF49671484344F691
:1017F000D351C1F26201A0FB0101012000EB911065
:101800000790FFE70898079908430C990968086250
:101810000C980068C0694CF6FF71884306900C98DC
:10182000406848F2A061C0F2010188421FD8FFE77A
:101830000A9801380C9949684900B0FBF1F0013071
:101840006FF31F30032803D8FFE7042005900BE057
:101850000A9801380C9949684900B0FBF1F0013051
:101860006FF31F300590FFE7059804904CE00C984B
:10187000806868B9FFE70A9801380C99496801EB5C
:101880004101B0FBF1F001306FF31F3003900DE028
:101890000A9801380C99496819225143B0FBF1F0BC
:1018A0000130042161F31F300390FFE70398000526
:1018B00018B9FFE70120029023E00C98806868B90E
:1018C000FFE70A9801380C99496801EB4101B0FB28
:1018D000F1F001306FF31F3001900DE00A980138EC
:1018E0000C99496819225143B0FBF1F001300421F1
:1018F00061F31F300190FFE7019840F4004002902F
:10190000FFE702980490FFE70698049908430C99B2
:101910000968C8610C980068006820F0C0000C9B42
:101920001968DA691B6A1A43104308600C9800684A
:10193000806848F2FF3188430C9A1168D3681269B5
:101940001A43104388600C980068C06820F0FF00BC
:101950000C9B19685A699B691A431043C8600C981C
:101960000168086840F0010008600C9900200864D4
:101970000C9A202182F83D100C9908630C9981F88B
:101980003E008DF83700FFE79DF837000EB080BDB0
:1019900080B588B0079000200690059004900390D1
:1019A00002900798006845F20041C4F200018842A5
:1019B00035D1FFE7FFE70020019043F63000C4F285
:1019C0000200016841F002010160006800F00200BD
:1019D00001900198FFE74FF41070029012200390DD
:1019E00001200490002005900420069040F2004061
:1019F000C4F2020002A9FEF799FFFFE70020009061
:101A000043F64000C4F20200016841F40011016095
:101A1000006800F4001000900098FFE7FFE708B0AE
:101A200080BD000080B588B0079007980068806886
:101A300006900798016843F60002C4F2000244F2DF
:101A40000800C4F20000914204BF43F20840C4F20F
:101A500000000068059007980068406804900798A7
:101A6000016844F20400C4F20000914204BF43F252
:101A70000440C4F200000068039007984068B0F585
:101A8000007F06D0FFE707984068002840F0958067
:101A9000FFE706988007002809D5FFE704980006AD
:101AA000002804D5FFE7079802F03AFAFFE7059807
:101AB000C00748B1FFE703984006002804D5FFE7B8
:101AC000079802F0E7F9FFE705984006002839D5A6
:101AD000FFE703988006002834D5FFE707980068E1
:101AE00043F60002C4F2000244F20401C4F2000111
:101AF000904204BF43F20441C4F20001086820F0A0
:101B00006000086007980168486820F0A0004860FD
:101B1000FFE70020029007980068C06802900798CD
:101B20000068806802900298FFE70799012081F819
:101B300041000799486C40F002004864079800F0A3
:101B4000C3F8FFE706980007002835D5FFE704989B
:101B50008006002830D5FFE707980168486820F024
:101B6000A00048600798006843F60002C4F2000233
:101B700044F20401C4F20001904204BF43F2044164
:101B8000C4F20001086820F060000860FFE7002050
:101B9000019007980068806801900198FFE7079915
:101BA000012081F841000799486C40F00400486426
:101BB000079800F089F8FFE77FE005988007002884
:101BC00009D5FFE703980006002804D5FFE707982A
:101BD00002F0CEF9FFE70698C00748B1FFE7049886
:101BE0004006002804D5FFE7079802F02BF9FFE72D
:101BF0000698400600282DD5FFE7049880060028A7
:101C000028D5FFE707980168486820F06000486021
:101C10000798006843F60002C4F2000244F204018F
:101C2000C4F20001904204BF43F20441C4F2000137
:101C3000086820F0A000086007994FF0010081F8C3
:101C400041000799486C40F002004864079800F092
:101C50003BF8FFE70598000700282DD5FFE703981C
:101C60008006002828D5FFE70798006843F60002A1
:101C7000C4F2000244F20401C4F20001904204BF25
:101C800043F20441C4F20001086820F0A00008609B
:101C900007980168486820F06000486007994FF095
:101CA000010081F841000799486C40F00400486445
:101CB000079800F009F8FFE7FFE708B080BD0000D3
:101CC00081B0009001B0704781B0009001B07047C2
:101CD00080B588B00690069820B9FFE701208DF8FE
:101CE0001F003AE1069890F8410070B9FFE70699A5
:101CF000002081F84000069943F6FD70C0F6000010
:101D00004863069800F02EF9FFE70699022081F853
:101D1000410006990A68D16940F6BF739943D161C1
:101D200006990968086206984069022864D0FFE7AE
:101D30000698C06818B9FFE71020039002E0202041
:101D40000390FFE706988068202804D8FFE70398EF
:101D500040000390FFE7012000F046FA019006984A
:101D60000069B0F5007F23D1FFE70698C06878B11D
:101D7000FFE7019803998900B0FBF1F000EB8000C8
:101D8000400006994969B0FBF1F0053002900EE081
:101D900001980399C900B0FBF1F000EB800040000E
:101DA00006994969B0FBF1F005300290FFE70DE0BC
:101DB00001980399B0FBF1F000EB80004000069918
:101DC0004969B0FBF1F005300290FFE702984CF64C
:101DD000CD41CCF6CC41A0FB0110C0080290029886
:101DE00000F00100049002980499401A4008059000
:101DF00004980002049004E0022005900020049062
:101E0000FFE70598022805D3FFE70598B0F5807F26
:101E100009D3FFE70699486C40F0100048640120A0
:101E20008DF81F0099E00598049A069B19681B69B4
:101E30001A431043086206980068C06940F6BF71F3
:101E400020EA0102069B19685868D3F808E0D3F825
:101E50000CC040EA0E0040EA0C009B691843104396
:101E600040F40060C8610698006A01286BD1FFE762
:101E7000069941F62520C0F60000486306980168DF
:101E800043F60002C4F2000244F21C00C4F2000057
:101E90009142034604BF43F21C43C4F20003196895
:101EA00040F6BF7C21EA0C0119600699096844F2EA
:101EB0002003C4F20003914204BF43F22043C4F262
:101EC00000034FF00201196006990968914204BFAE
:101ED00043F21C40C4F200000068ADF8020006980E
:101EE0004068B0F5007F04D0FFE70698406820B94D
:101EF000FFE74FF48070029002E000200290FFE7BD
:101F0000029806998B68CA68896918431043084388
:101F1000BDF80210084340F40060ADF80200BDF8BF
:101F2000020006990A6843F60003C4F2000344F273
:101F30001C01C4F200019A4204BF43F21C41C4F2E6
:101F400000010860FFE7069900204864069A012115
:101F500082F841108DF81F00FFE79DF81F0008B0C0
:101F600080BD000080B592B01190002004901090C8
:101F70000F900E900D900C900B900A900990089085
:101F80001198006843F60041C4F20001884267D10D
:101F9000FFE701200890C020099002200A9008A8BD
:101FA00000F084F918B1FFE7FEF77EFCFFE7FFE7DA
:101FB0000020079043F64000C4F20200016841F49B
:101FC00000410160006800F4004007900798FFE7B7
:101FD000FFE70020069043F63000C4F202000168DB
:101FE00041F001010160006800F0010006900698D0
:101FF000FFE7FFE70020059043F63000C4F202003F
:10200000016841F004010160006800F004000590DF
:102010000598FFE710200C90022000900D90002002
:1020200001900E900F900620029010900020C4F2B4
:1020300002000CA90391FEF779FC009B019A02981B
:1020400003994FF4A45CCDF830C00D930E920F921B
:10205000109040F60000C4F20200FEF767FCFFE7B4
:1020600012B080BD81B0009001B0704781B0009087
:1020700001B0704740F22400C2F20000027840F63E
:102080006401C2F200010868104408607047000053
:1020900080B582B043F60041C4F20201086840F402
:1020A00000700860086840F480600860086840F4C8
:1020B00080700860032000F08FF80020019000F08D
:1020C00005F800F03BF8019802B080BD80B582B001
:1020D000009040F22000C2F20000006840F22401AB
:1020E000C2F200010A784FF47A71B1FBF2F1B0FB51
:1020F000F1F000F0D9FF20B1FFE701208DF80700D3
:1021000018E000980F280DD8FFE700994FF0FF3036
:10211000002200F047F8009840F22801C2F20001C6
:10212000086003E001208DF8070003E000208DF82F
:102130000700FFE79DF8070002B080BD80B582B0C0
:10214000FFE70020019043F64400C4F2020001685A
:1021500041F480410160006800F4804001900198E2
:10216000FFE7FFE70020009043F64000C4F20200C2
:10217000016841F080510160006800F080500090DB
:102180000098FFE7072000F027F802B080BD0000AC
:1021900080B582B08DF807009DF9070005F0B0FB0F
:1021A00002B080BD80B586B08DF81700049103920F
:1021B0000020029005F0BCFB02909DF917000190F1
:1021C00002980499039A02F0C5F90146019805F0B6
:1021D000B7FB06B080BD000080B582B001900198C9
:1021E00005F0D0FB02B080BD86B0059000200490C1
:1021F0000390029001900598012853D1FFE743F620
:102200000800C4F20200006800F400000290029886
:10221000009050B1FFE7009801283FD1FFE748F256
:102220000000C0F2BB0004903BE043F60400C4F29F
:1022300002000068400200280FD5FFE743F60400C3
:10224000C4F20200006800F03F0141F20020C0F239
:102250007A00B0FBF1F003900EE043F60400C4F204
:102260000200006800F03F0142F20040C0F2F400BA
:10227000B0FBF1F00390FFE7039843F68401C4F24A
:1022800002010A68C2F3881250430190019809685C
:10229000C1F30271B0FBF1F0049002E00020049061
:1022A000FFE7FFE7049806B07047000080B586B0EE
:1022B000049000200390029004980078C00730B981
:1022C000FFE704980078400700284ED5FFE7682113
:1022D000C4F2472100200860FEF71CFD0390FFE7D1
:1022E00043F60000C4F20200006800F00061002024
:1022F000B0EBD16F0CD0FFE7FEF70CFD0399401A4D
:10230000032804D3FFE703208DF81700E4E0E7E794
:10231000049948688968800140EA017043F68401A5
:10232000C4F2020108606821C4F24721012008605C
:10233000FEF7F0FC0390FFE743F60000C4F2020052
:10234000006800F000610020B0EBD16F0CD1FFE716
:10235000FEF7E0FC0399401A032804D3FFE70320AB
:102360008DF81700B8E0E7E7FFE7049800788007EA
:10237000002840F1AD80FFE7FFE70020019043F621
:102380004000C4F20200016841F080510160006821
:1023900000F0805001900198FFE747F20001C4F27D
:1023A0000001086840F480700860FEF7B3FC0390F9
:1023B000FFE747F20000C4F200000068C0050028F3
:1023C0000CD4FFE7FEF7A6FC0399401A032804D3B8
:1023D000FFE703208DF817007EE0EAE743F6700080
:1023E000C4F20200006800F44070029002980028D5
:1023F0003ED0FFE702980499C96801F44071884211
:1024000036D0FFE743F67000C4F20200016821F401
:102410004071029140F64062C4F2472201211160EE
:1024200000211160029901600068C007F8B1FFE760
:10243000FEF770FC0390FFE743F67000C4F2020061
:10244000006800F002010020B0EB510F0ED1FFE751
:10245000FEF760FC0399401A41F28931884204D3A7
:10246000FFE703208DF8170036E0E5E7FFE7FFE719
:10247000FFE70498C06800F44070B0F5407F11D1C8
:10248000FFE743F60801C4F20201086820F4F810DF
:10249000049AD2684FF6FF43C0F6FF731A40104308
:1024A000086008E043F60801C4F20201086820F45D
:1024B000F8100860FFE70498C2686FF31F3243F614
:1024C0007001C4F20201086810430860FFE7FFE7EB
:1024D00000208DF81700FFE79DF8170006B080BDBB
:1024E00080B584B002900191029820B9FFE70120E5
:1024F0008DF80F0021E1019843F60041C4F202017A
:10250000096801F00701884212D9FFE7019943F6F3
:102510000040C4F202000170006800F00700019959
:10252000884204D0FFE701208DF80F0005E1FFE7A6
:1025300002980078800700282AD5FFE702980078E3
:102540004007002809D5FFE743F60801C4F202015D
:10255000086840F4E0500860FFE702980078000740
:10256000002809D5FFE743F60801C4F20201086814
:1025700040F460400860FFE743F60801C4F202013E
:10258000086820F0F000029A926810430860FFE7A4
:1025900002980078C00700286ED0FFE702984068D4
:1025A000012811D1FFE743F60000C4F202000068E1
:1025B00000F400310020B0EB514F04D1FFE70120BF
:1025C0008DF80F00B9E02CE002984068022805D091
:1025D000FFE702984068032811D1FFE743F60000A7
:1025E000C4F20200006800F000710020B0EB516FEF
:1025F00004D1FFE701208DF80F009EE010E043F6C4
:102600000000C4F20200006800F002010020B0EBFC
:10261000510F04D1FFE701208DF80F008DE0FFE797
:10262000FFE743F60801C4F20201086820F0030046
:10263000029A526810430860FEF76CFB0090FFE7B7
:1026400043F60800C4F20200006800F00C00029992
:102650004968B0EB810F0ED0FFE7FEF75BFB0099F6
:10266000401A41F28931884204D3FFE703208DF8F4
:102670000F0062E0E4E7FFE7019843F60041C4F28F
:102680000201096801F00701884212D2FFE70199AF
:1026900043F60040C4F202000170006800F0070039
:1026A0000199884204D0FFE701208DF80F0044E033
:1026B000FFE702980078400700280CD5FFE743F6B3
:1026C0000801C4F20201086820F4E050029AD268BE
:1026D00010430860FFE702980078000700280DD536
:1026E000FFE743F60801C4F20201086820F46040E5
:1026F000029A126940EAC2000860FFE700F03AF867
:1027000043F60801C4F202010968C9B20A0947F692
:102710000621C0F60001895CC84040F22001C2F2E7
:102720000001086040F22800C2F200000068FFF7D4
:10273000CDFC00208DF80F00FFE79DF80F0004B0DE
:1027400080BD000040F22000C2F200000068704727
:1027500080B5FFF7F7FF43F60801C4F202010968EC
:10276000C1F3822247F61621C0F60001895CC840F9
:1027700080BD000080B586B00020059004900390D5
:10278000029043F60800C4F20200006800F00C005A
:102790000146019140B1FFE7019804280AD0FFE704
:1027A000019808280CD04FE042F20040C0F2F4003B
:1027B00002904FE041F20020C0F27A00029049E01E
:1027C00043F60400C4F20200016801F03F010591E4
:1027D00000684002002813D5FFE743F60400C4F266
:1027E00002000068C0F3881041F20021C0F27A01B3
:1027F000A0FB0101059A0023FDF790FD049012E073
:1028000043F60400C4F202000068C0F3881042F2EC
:102810000041C0F2F401A0FB0101059A0023FDF77D
:102820007DFD0490FFE743F60400C4F20200006857
:1028300000F44031022000EBD1300390049803995A
:10284000B0FBF1F0029005E042F20040C0F2F4006B
:102850000290FFE7029806B080BD000080B586B008
:102860000490049820B9FFE701208DF8170050E389
:1028700004980078C007002800F0A580FFE743F621
:102880000800C4F20200006800F00C00042813D015
:10289000FFE743F60800C4F20200006800F00C00F5
:1028A00008281ED1FFE743F60400C4F202000068C6
:1028B0004002002815D5FFE743F60000C4F20200ED
:1028C000006800F400310020B0EB514F08D0FFE762
:1028D0000498406820B9FFE701208DF8170018E33D
:1028E00070E0FFE704984068B0F5803F09D1FFE74A
:1028F00043F60001C4F20201086840F48030086029
:1029000020E004984068B0F5A02F0DD1FFE743F612
:102910000001C4F20201086840F4802008600868E1
:1029200040F4803008600CE043F60001C4F202017C
:10293000086820F480300860086820F4802008606F
:10294000FFE7FFE7FFE704984068E8B1FFE7FEF71D
:10295000E1F90390FFE743F60000C4F202000068CB
:1029600000F400310020B0EB514F0CD1FFE7FEF72F
:10297000D1F90399401A652804D3FFE703208DF8A5
:102980001700C6E2E7E71CE0FEF7C4F90390FFE793
:1029900043F60000C4F20200006800F40031002099
:1029A000B0EB514F0CD0FFE7FEF7B4F90399401A92
:1029B000652804D3FFE703208DF81700A9E2E7E7B5
:1029C000FFE7FFE7FFE7049800788007002840F161
:1029D0009680FFE743F60800C4F20200006810F09A
:1029E0000C0F13D0FFE743F60800C4F202000068A2
:1029F00000F00C0008282CD1FFE743F60400C4F2D5
:102A0000020000684002002823D4FFE743F60000DC
:102A1000C4F20200006800F002010020B0EB510F88
:102A200009D0FFE70498C068012804D0FFE701201F
:102A30008DF817006DE243F60001C4F20201086848
:102A400020F0F800049A126940EAC2000860FFE72B
:102A500054E00498C06870B3FFE70021C4F2472136
:102A600001200860FEF756F90390FFE743F60000E7
:102A7000C4F20200006800F002010020B0EB510F28
:102A80000CD1FFE7FEF746F90399401A032804D357
:102A9000FFE703208DF817003BE2E7E743F600016C
:102AA000C4F20201086820F0F800049A126940EAB2
:102AB000C200086021E00021C4F247210020086024
:102AC000FEF728F90390FFE743F60000C4F2020086
:102AD000006800F002010020B0EB510F0CD0FFE7BE
:102AE000FEF718F90399401A032804D3FFE70320DF
:102AF0008DF817000DE2E7E7FFE7FFE7FFE704982F
:102B00000078000700284BD5FFE70498406918B308
:102B1000FFE740F68061C4F2472101200860FEF71C
:102B2000F9F80390FFE743F67400C4F2020000686E
:102B300000F002010020B0EB510F0CD1FFE7FEF7CF
:102B4000E9F80399401A032804D3FFE703208DF81E
:102B50001700DEE1E7E722E040F68061C4F247219A
:102B600000200860FEF7D6F80390FFE743F67400F4
:102B7000C4F20200006800F002010020B0EB510F27
:102B80000CD0FFE7FEF7C6F80399401A032804D3D8
:102B9000FFE703208DF81700BBE1E7E7FFE7FFE75A
:102BA000049800784007002840F1CE80FFE700201D
:102BB0008DF8070043F64000C4F202000068C00030
:102BC000002815D4FFE7FFE70020009043F64000FF
:102BD000C4F20200016841F080510160006800F019
:102BE000805000900098FFE701208DF80700FFE774
:102BF00047F20000C4F200000068C005002822D49B
:102C0000FFE747F20001C4F20001086840F4807059
:102C10000860FEF77FF80390FFE747F20000C4F278
:102C200000000068C00500280CD4FFE7FEF772F82A
:102C30000399401A032804D3FFE703208DF81700F7
:102C400067E1EAE7FFE7FFE704988068012809D118
:102C5000FFE743F67001C4F20201086840F001008A
:102C600008601FE00498806805280DD1FFE743F64F
:102C70007001C4F20201086840F0040008600868AE
:102C800040F0010008600CE043F67001C4F202015C
:102C9000086820F001000860086820F0040008605F
:102CA000FFE7FFE7FFE704988068F8B1FFE7FEF76A
:102CB00031F80390FFE743F67000C4F202000068A9
:102CC00000F002010020B0EB510F0ED1FFE7FEF73C
:102CD00021F80399401A41F28931884204D3FFE771
:102CE00003208DF8170014E1E5E71EE0FEF712F867
:102CF0000390FFE743F67000C4F20200006800F0A2
:102D000002010020B0EB510F0ED0FFE7FEF702F8F2
:102D10000399401A41F28931884204D3FFE7032026
:102D20008DF81700F5E0E5E7FFE79DF807000128BB
:102D300009D1FFE743F64001C4F20201086820F020
:102D400080500860FFE7FFE704988069002800F0E2
:102D5000DC80FFE743F60800C4F20200006800F0E0
:102D60000C00082800F08580FFE70498806902289D
:102D70005CD1FFE76021C4F2472100200860FDF725
:102D8000C9FF0390FFE743F60000C4F202000068A9
:102D900000F000710020B0EB516F0CD0FFE7FDF7A1
:102DA000B9FF0399401A032804D3FFE703208DF8E5
:102DB0001700AEE0E7E70499C869D1F820C04B6A74
:102DC0008A6A40EA0C0040EA8310D2034FF6FF7390
:102DD0009A43A2F580321043C96A40EA016043F683
:102DE0000401C4F2020108606021C4F247210120FD
:102DF0000860FDF78FFF0390FFE743F60000C4F281
:102E00000200006800F000710020B0EB516F0CD19F
:102E1000FFE7FDF77FFF0399401A032804D3FFE77C
:102E200003208DF8170074E0E7E721E06021C4F289
:102E3000472100200860FDF76DFF0390FFE743F690
:102E40000000C4F20200006800F000710020B0EB46
:102E5000516F0CD0FFE7FDF75DFF0399401A03287F
:102E600004D3FFE703208DF8170052E0E7E7FFE700
:102E70004AE004988069012804D1FFE701208DF819
:102E8000170046E043F60400C4F202000068029016
:102E900004988069012831D0FFE7029800F480008F
:102EA0000499C969884229D1FFE7029800F03F00E0
:102EB0000499096A884221D1FFE7029847F6C07158
:102EC00008400499496AB0EB811F17D1FFE70298C7
:102ED00000F440300499896AC9034FF6FF729143A8
:102EE000A1F58031884209D1FFE7029800F07060B7
:102EF0000499C96AB0EB016F04D0FFE701208DF897
:102F0000170006E0FFE7FFE7FFE700208DF8170056
:102F1000FFE79DF8170006B080BD000080B584B0C3
:102F20000290029820B9FFE701208DF80F0071E0B0
:102F30000298406A60B9FFE702984068B0F5827F66
:102F400001D1FFE703E002990020C861FFE705E037
:102F500002990020086102994861FFE70299002068
:102F60008862029890F8510040B9FFE7029900206A
:102F700081F85000029800F051F8FFE70299022012
:102F800081F8510002980168086820F0400008604C
:102F9000029A019211685068D2F808C0D36800F410
:102FA00082700CF4044C604403F400631844136909
:102FB00003F002031844536903F0010318449369B2
:102FC00003F400731844D36903F038031844136AF8
:102FD00003F080031843926A02F400521043086021
:102FE000029A508B00F004001168526A02F010023D
:102FF0001044486002980168C86920F40060C86104
:10300000029900204865029A012182F851108DF83A
:103010000F00FFE79DF80F0004B080BD80B588B0B9
:103020000790002006900590049003900290079866
:10303000006843F20001C4F20101884232D1FFE787
:10304000FFE70020019043F64400C4F2020001684B
:1030500041F480510160006800F4805001900198B3
:10306000FFE7FFE70020009043F63000C4F20200C3
:10307000016841F001010160006800F0010000906A
:103080000098FFE7E02002900220039000200490C7
:103090000590052006900020C4F2020002A9FDF769
:1030A00045FCFFE708B080BD80B582B00190019873
:1030B00001F0AAFA02B080BD80B586B005908DF807
:1030C0001310059800680390039802909DF8130070
:1030D00001900298019900EB4110D0F808054007D3
:1030E000002816D5FFE70298019900EB4111042052
:1030F000C1F80805059A01982C2100FB0121062042
:1031000081F86100059800689DF8041003F0F6FD51
:1031100099E00298019900EB4110D0F80805C0052C
:10312000002817D5FFE70298019900EB41114FF4F1
:103130008070C1F80805059A01982C2100FB012137
:10314000072081F86100059800689DF8041003F0DD
:10315000D5FD77E00298019900EB4110D0F8080501
:103160008006002808D5FFE70298019900EB41117D
:103170002020C1F8080564E00298019900EB411095
:10318000D0F808050007002816D5FFE70298019936
:1031900000EB41110820C1F80805059A01982C217F
:1031A00000FB0121052081F86100059800689DF869
:1031B000041003F0A3FD43E00298019900EB4110D5
:1031C000D0F808054005002817D5FFE702980199B7
:1031D00000EB41114FF48060C1F80805059A019891
:1031E0002C2100FB0121082081F86100059800686E
:1031F0009DF8041003F082FD21E00298019900EB94
:103200004110D0F808050006002816D5FFE70298FF
:10321000019900EB41118020C1F80805059A019839
:103220002C2100FB0121062081F86100059800682F
:103230009DF8041003F062FD00E0FFE7FFE7FFE701
:10324000FFE7FFE7FFE70298019900EB4110D0F894
:103250000805800500280FD5FFE7059800689DF850
:10326000041003F04BFD0298019900EB41114FF45B
:103270000070C1F80805F0E10298019900EB4110D7
:10328000D0F80805C007002800F0AB80FFE70598DC
:103290000069A0B1FFE70598019B2C2203FB020007
:1032A000806C029901EB4311D1F810156FF3DF41E7
:1032B000401A059B019901FB02310865FFE7059A59
:1032C00001982C2100FB0122012082F86100059B5E
:1032D000019A02FB01330022DA65029A019B02EB9C
:1032E0004312C2F80805059A019800FB012090F8E6
:1032F0003F0050B1FFE7059A01982C2100FB012007
:1033000090F83F0002280ED1FFE7059800689DF86D
:10331000041003F0F3FC0298019900EB4111102016
:10332000C1F8080531E0059A01982C2100FB012025
:1033300090F83F0003280AD0FFE7059A01982C2156
:1033400000FB012090F83F0001281CD1FFE7029804
:10335000019900EB4111D1F8000540F00050C1F88F
:103360000005059901982C2200FB0211012081F82B
:1033700060000598019901FB020292F86020C9B231
:10338000FDF7E8FD00E0FFE7FFE705980069012889
:103390001AD1FFE7059A01982C2100FB0121886CC6
:1033A000B1F84010B0FBF1F0C00760B1FFE7059A3B
:1033B00001982C2100FB012191F8540080F00100BC
:1033C00081F85400FFE70BE0059A01982C2100FBDF
:1033D000012191F8540080F0010081F85400FFE7CA
:1033E0003AE10298019900EB4110D0F808058007F6
:1033F000002840F1D480FFE7059A01982C2100FBBA
:10340000012090F86100012809D1FFE7059A019891
:103410002C2100FB0121012081F86000ADE0059A1C
:1034200001982C2100FB012090F86100052809D1AA
:10343000FFE7059A01982C2100FB0121052081F866
:10344000600099E0059A01982C2100FB012090F87A
:10345000610006280AD0FFE7059A01982C2100FB9D
:10346000012090F8610008283FD1FFE7059A0198F4
:103470002C2100FB0122D06D0130D065059A019806
:1034800000FB0120C06D03280FD3FFE7059A0198C8
:103490002C2100FB01220020D065059A019800FB39
:1034A0000121042081F860001EE0059A01982C217A
:1034B00000FB0121022081F860000298019900EBD5
:1034C0004110D0F800050090009820F08040009056
:1034D000009840F00040009000980299019A01EB9A
:1034E0004211C1F80005FFE745E0059A01982C213B
:1034F00000FB012090F8610003281FD1FFE7059A27
:1035000001982C2100FB0121022081F86000029823
:10351000019900EB4110D0F800050090009820F0D0
:1035200080400090009840F0004000900098029980
:10353000019A01EB4211C1F800051BE0059A0198C0
:103540002C2100FB012090F86100072810D1FFE733
:10355000059A01982C2100FB0122D06D0130D06525
:10356000059A019800FB0121042081F8600000E029
:10357000FFE7FFE7FFE7FFE7FFE70298019900EBAE
:1035800041110220C1F80805059801992C2201FB80
:10359000020292F86020C9B2FDF7DCFC5BE0029801
:1035A000019900EB4110D0F80805C006002850D55D
:1035B000FFE7059A01982C2100FB012090F83F00BD
:1035C00003280ED1FFE7059A01982C2100FB012169
:1035D0000020C865059800689DF8041003F08EFB74
:1035E0002FE0059A01982C2100FB012090F83F0064
:1035F00050B1FFE7059A01982C2100FB012090F8BB
:103600003F0002281BD1FFE7059A01982C2100FBFF
:1036100001210020C8650598006978B9FFE7059A7F
:1036200001982C2100FB0121032081F861000598FD
:1036300000689DF8041003F061FBFFE700E0FFE77E
:10364000FFE70298019900EB41111020C1F808052D
:1036500000E0FFE7FFE7FFE7FFE706B080BD0000FF
:1036600080B588B007908DF81B100798006805900A
:10367000059804909DF81B0003900498039900EBB3
:103680004110D0F808054007002816D5FFE7049838
:10369000039900EB41110420C1F80805079A03982B
:1036A0002C2100FB0121062081F8610007980068A9
:1036B0009DF80C1003F022FBAAE20498039900EB9A
:1036C0004110D0F808058006002828D5FFE70498A7
:1036D000039900EB41112020C1F80805079A0398CF
:1036E0002C2100FB012090F83D00012816D1FFE7B6
:1036F000079A03982C2100FB0122002082F83D004C
:10370000079A039800FB0121022081F860000798C6
:1037100000689DF80C1003F0F1FAFFE777E20498D7
:10372000039900EB4110D0F80805800500280FD55B
:10373000FFE70498039900EB41114FF40070C1F8C2
:103740000805079800689DF80C1003F0D7FA5DE2B1
:103750000498039900EB4110D0F80805C007B0B3F6
:10376000FFE7079A03982C2100FB01210020C86580
:103770000498039900EB4110D0F808054006002892
:1037800010D5FFE7079A03982C2100FB01210120A7
:1037900081F83D000498039900EB41114020C1F8E5
:1037A0000805FFE70498039900EB41110120C1F8D7
:1037B0000805079B03992C2201FB023181F8610067
:1037C000079800689DF80C1003F098FA1DE2049821
:1037D000039900EB4110D0F808054006002823D5D6
:1037E000FFE7079A03982C2100FB0122042082F8AE
:1037F0006100079A039800FB0122012082F83D0036
:10380000079A039800FB01210020C865079800680B
:103810009DF80C1003F072FA0498039900EB411123
:103820004020C1F80805EFE10498039900EB41102E
:10383000D0F808050007002816D5FFE7049803997B
:1038400000EB41110820C1F80805079A03982C21C4
:1038500000FB0121052081F86100079800689DF8B0
:103860000C1003F04BFACEE10498039900EB4110E1
:10387000D0F80805C006002837D5FFE7079A039857
:103880002C2100FB01220020D065079A039800FB41
:103890000122032082F86100079A039800FB0120AF
:1038A00090F83D0098B9FFE7079A03982C2100FB98
:1038B000012090F83C0048B9FFE7079A03982C21B3
:1038C00000FB0121012081F83D00FFE7FFE7079899
:1038D00000689DF80C1003F011FA0498039900EBAE
:1038E00041111020C1F808058CE10498039900EB00
:1038F0004110D0F80805000600284DD5FFE70798CD
:10390000006978B9FFE7079A03982C2100FB012191
:10391000062081F86100079800689DF80C1003F0FC
:10392000EDF931E0079A03982C2100FB0122D06DBC
:103930000130D065079A039800FB0120C06D032871
:1039400018D3FFE7079903982C2200FB02110020EF
:10395000C8650799039800FB0211042081F86000F4
:103960000798039901FB020292F86020C9B2FDF7A3
:10397000F1FA08E0079A03982C2100FB01210220AC
:1039800081F86000FFE7FFE70498039900EB41111D
:103990008020C1F8080534E10498039900EB411038
:1039A000D0F808054005002817D5FFE7079A0398C7
:1039B0002C2100FB0121082081F861000798006894
:1039C0009DF80C1003F09AF90498039900EB41114B
:1039D0004FF48060C1F8080512E10498039900EBE8
:1039E0004110D0F808058007002840F10781FFE763
:1039F000079A03982C2100FB012090F86100012810
:103A000059D1FFE7079A03982C2100FB01220120DE
:103A100082F86000079A039800FB012090F83F00AD
:103A200002280AD0FFE7079A03982C2100FB012007
:103A300090F83F0003283DD1FFE70798006960B97F
:103A4000FFE7079A03982C2100FB012191F855000C
:103A500080F0010081F85500FFE707980069012810
:103A600027D1FFE7079A03982C2100FB0120C06CA7
:103A7000F8B1FFE7079A03982C2100FB0121C86CDD
:103A8000B1F8401008440138B0FBF1F001909DF806
:103A90000400C00760B1FFE7079A03982C2100FBE0
:103AA000012191F8550080F0010081F85500FFE7F1
:103AB000FFE7FFE790E0079A03982C2100FB012025
:103AC00090F86100032809D1FFE7079A03982C2199
:103AD00000FB0121022081F860007CE0079A039836
:103AE0002C2100FB012090F86100042809D1FFE798
:103AF000079A03982C2100FB0121022081F8600025
:103B000068E0079A03982C2100FB012090F86100DF
:103B1000052809D1FFE7079A03982C2100FB012112
:103B2000052081F8600054E0079A03982C2100FBDF
:103B3000012090F8610006280AD0FFE7079A039851
:103B40002C2100FB012090F8610008283FD1FFE7FD
:103B5000079A03982C2100FB0122D06D0130D0651B
:103B6000079A039800FB0120C06D03280FD3FFE7DD
:103B7000079A03982C2100FB01220020D065079AA8
:103B8000039800FB0121042081F860001EE0079AE1
:103B900003982C2100FB0121022081F86000049889
:103BA000039900EB4110D0F800050290029820F034
:103BB00080400290029840F00040029002980499E0
:103BC000039A01EB4211C1F80005FFE700E0FFE7AF
:103BD000FFE7FFE7FFE7FFE70498039900EB4111D8
:103BE0000220C1F80805079803992C2201FB020264
:103BF00092F86020C9B2FDF7ADF900E0FFE7FFE7FA
:103C0000FFE7FFE7FFE7FFE7FFE7FFE7FFE7FFE784
:103C100008B080BD80B586B0059005980068049016
:103C2000049803900398D0F8400402900398D0F8C9
:103C300040040190019820F02E0001900298800726
:103C400000280DD5FFE70298C00720B1FFE70598CF
:103C5000FDF766F8FFE7019840F002000190FFE7EA
:103C600002980007002837D5FFE7019840F00800C8
:103C7000019002984007002829D5FFE70598806940
:103C8000022814D1FFE7029800F4C020B0F5802F7D
:103C900006D1FFE705980068022103F02DFC05E03E
:103CA00005980068012103F027FCFFE70BE0059869
:103CB000C068012806D1FFE703994EF66020C1F8DD
:103CC0000404FFE7FFE70598FDF7A0FC03E0059873
:103CD000FDF792FCFFE7FFE702988006002805D574
:103CE000FFE7019840F020000190FFE70198039959
:103CF000C1F8400406B080BD80B58CB00B900B9825
:103D000000680A900A9809900B980068006A06906B
:103D1000069800F00F0003900698C0F34340089007
:103D20000698C0F30A1007900898023801460291DD
:103D3000052800F282800299DFE801F0037E7F7D92
:103D40007F7E0798002875D0FFE70B9A03982C21F7
:103D500000FB0120406C00286CD0FFE70B9A039811
:103D60002C2100FB0120C16C006D079A1044884291
:103D700056D8FFE70B9B186803992C22019201FB90
:103D80000231496CBDF81C2003F0F6FB0199079B3A
:103D90000B9A039800FB0122506C18445064079B57
:103DA0000B9A039800FB0122106D184410650998C6
:103DB000039A00EB4210D0F81005C0F3C9400590FB
:103DC0000B9A039800FB0120B0F840000799884245
:103DD00025D1FFE7059810B3FFE70998039900EB99
:103DE0004110D0F800050490049820F08040049021
:103DF000049840F00040049004980999039A01EB5C
:103E00004211C1F800050B9A03982C2100FB0121F7
:103E100091F8540080F0010081F85400FFE708E0B9
:103E20000B9A03982C2100FB0121042081F86000EB
:103E3000FFE7FFE702E001E0FFE7FFE70CB080BD2E
:103E4000FFE7FEE780B582B0019001980068C06886
:103E5000019BD96A8A1CDA6208800199488E013870
:103E600048860198408E98B9FFE701980168486834
:103E700020F0600048600198408D40B9FFE701994B
:103E8000012081F841000198FDF71AFFFFE7FFE7E5
:103E900002B080BD80B582B001900198016843F600
:103EA0000002C4F2000244F20C00C4F2000091428D
:103EB00004BF43F20C40C4F200000068019BD96AC1
:103EC00001F10202DA6208800199488EA0F1010036
:103ED00048860198408E08BBFFE70198006843F6CA
:103EE0000002C4F2000244F20401C4F20001904254
:103EF00004BF43F20441C4F20001086820F06000EE
:103F000008600198408D40B9FFE70199012081F8D0
:103F100041000198FDF7D4FEFFE7FFE702B080BD46
:103F200080B582B00190019A506A811C516200886C
:103F300001990968C8600199488D01384885019840
:103F4000408D98B9FFE701980168486820F0A0000B
:103F500048600198408E40B9FFE70199012081F83F
:103F600041000198FDF7ACFEFFE7FFE702B080BD1E
:103F700080B582B00190019A506A811C516200881C
:103F800001990A6843F60003C4F2000344F20C01ED
:103F9000C4F200019A4204BF43F20C41C4F2000192
:103FA00008600199488DA0F1010048850198408D75
:103FB00008BBFFE70198006843F60002C4F2000264
:103FC00044F20401C4F20001904204BF43F20441F0
:103FD000C4F20001086820F0A00008600198408E3B
:103FE00040B9FFE70199012081F841000198FDF7F0
:103FF00067FEFFE7FFE702B080BD000080B584B038
:1040000003900398006880680290039890F841003C
:10401000042842D1FFE70298C00770B1FFE7039878
:104020000068406800F040010020B0EB911F04D010
:10403000FFE7039800F078F8FFE7029840060028B1
:104040002AD5FFE703980068406800F020010020AF
:10405000B0EB511F20D0FFE703980168486820F0BB
:1040600060004860FFE70020019003980068C06886
:10407000019003980068806801900198FFE7039918
:10408000012081F841000399486C40F00200486427
:104090000398FDF719FEFFE7FFE7039890F841004A
:1040A00003283ED1FFE70298800700280DD5FFE7DF
:1040B000039800684068C1B20020B0EBD11F04D063
:1040C000FFE7039800F056F8FFE702980007002882
:1040D00026D5FFE703980068406800F02001002023
:1040E000B0EB511F1CD0FFE703980168486820F02F
:1040F000A0004860FFE700200090039800688068F7
:1041000000900098FFE70399012081F8410003998E
:10411000486C40F0040048640398FDF7D5FDFFE7C4
:10412000FFE704B080BD000080B582B00190019827
:104130000068C0680199C96A08800199C86A02309C
:10414000C8620199488E013848860198408E70B93E
:10415000FFE701980168486820F060004860019915
:10416000012081F841000198FDF77CFFFFE702B0D4
:1041700080BD000080B582B0019001980168406A5E
:104180000088C8600199486A023048620199488DE8
:10419000013848850198408D70B9FFE701980168A2
:1041A000486820F0A00048600199012081F8410092
:1041B0000198FDF75BFFFFE702B080BD80B582B0DC
:1041C0008DF807009DF807008DF806009DF80700A0
:1041D00020B9FFE700208DF8060003E001208DF8EC
:1041E0000600FFE79DF8062040F60000C4F202003A
:1041F0000121FCF777FD02B080BD000080B598B0CA
:10420000002017901690159014901390FFE700204F
:10421000129043F63000C4F20200016841F0100130
:104220000160006800F0100012901298FFE7FFE7AD
:104230000020119043F63000C4F20200016841F002
:1042400004010160006800F0040011901198FFE77C
:10425000FFE70020109043F63000C4F2020001682E
:1042600041F080010160006800F08000109010981B
:10427000FFE7FFE700200F9043F63000C4F2020092
:10428000016841F001010160006800F001000F9039
:104290000F98FFE7FFE700200E9043F63000C4F2CE
:1042A0000200016841F002010160006800F00200B4
:1042B0000E900E98FFE7FFE700200D9043F63000C8
:1042C000C4F20200016841F008010160006800F0DA
:1042D00008000D900D98FFE741F20000C4F20200C3
:1042E0000B900821019100220A92FCF7FBFC40F69A
:1042F0000000C4F202000290012206921146FCF76F
:10430000F1FC0A9A40F60040C4F2020007904FF216
:1043100010010591FCF7E6FC019B069A0A990B989F
:10432000139314921591169113A90C91FCF7FEFAB0
:104330000298069B0A9A0C9913931493159216925D
:10434000FCF7F4FA019B02980A9A0C991393022342
:104350000893149315921692052203921792FCF774
:10436000E5FA069A0A980C9913924FF49012099262
:10437000149215900020C4F20200FCF7D7FA0A98B4
:104380000C99042213921490159040F20040C4F24C
:1043900002000490FCF7CAFA039A0498DDF820C0E2
:1043A0000A9B0C994FF4806ECDF84CE0CDF850C0CC
:1043B000159316931792FCF7B9FADDF814C0069B13
:1043C00007980A9A0C99CDF84CC01493159216923E
:1043D000FCF7ACFA07980A9A0C99202313931492CD
:1043E0001592FCF7A3FADDF820C0099B0A9A0B98F6
:1043F0000C99CDF84CC014931592FCF797FA18B0AD
:1044000080BD000080B582B040F27070C2F2000042
:10441000019045F20041C4F20001016048F2A06140
:10442000C0F20101416000218160C1604FF480420F
:10443000026141618161C1610162FDF757F918B103
:10444000FFE7FCF731FAFFE702B080BD80B582B02C
:1044500040F2C470C2F20000019043F60041C4F281
:10446000000101604FF40072426000218160C16070
:10447000026147F20072C0F2010242618161C161D2
:104480000162FDF725FC18B1FFE7FCF70DFAFFE725
:1044900002B080BD80B582B040F60C00C2F20000D0
:1044A000009043F20001C4F2010101604FF48271F7
:1044B0004160002101918160C160016141614FF45F
:1044C00000728261C1610162416281620A21C1623E
:1044D000FEF724FD18B1FFE7FCF7E6F9FFE702B0AD
:1044E00080BD000080B540F29400C2F2000046F6A4
:1044F000ED01C0F60001012201F02CFA18B1FFE72E
:10450000FCF7D2F9FFE740F29400C2F2000040F25B
:104510000001C2F2000102F025F918B1FFE7FCF733
:10452000C3F9FFE740F29400C2F2000002F0D0F9B4
:1045300018B1FFE7FCF7B8F9FFE780BD80B540F29E
:104540009400C2F2000001F017FF80BDFFE7FEE714
:10455000FFE7FEE788B0079006910592079800F004
:10456000070004900498C0F10700052803D3FFE773
:104570000420019004E00498C0F107000190FFE7D7
:104580000198039004980430062803D8FFE7002020
:10459000009003E0049803380090FFE70098029031
:1045A00006980399012202FA01F101390840029BA1
:1045B000984005999A40013A1140084308B0704765
:1045C00080B540F26C40C2F20000FCF721FE80BDD5
:1045D000704700007047000080B582B001900091E4
:1045E0000199212008740199202048740199002024
:1045F00048820199888201980722C2820198009915
:1046000000F0DEFB02B080BD80B582B00090009863
:104610000138B0F1807F03D3FFE70120019019E05A
:10462000009801384EF21401CEF2000108604FF0FC
:10463000FF300F2103F084F94EF21801CEF2000191
:10464000002008604EF21002CEF200020721116035
:104650000190FFE7019802B080BD000080B5FDF732
:1046600009FD80BD80B594B008A83021FBF7CEFECF
:10467000002007900690059004900390FFE700202B
:10468000029043F64000C4F20200016841F08051FC
:104690000160006800F0805002900298FFE7FFE799
:1046A0000020019047F20000C4F20000016841F4CC
:1046B00080410160006800F4804001900198FFE7AC
:1046C000012008904FF48030099002200E904FF4A2
:1046D00080010F91082110914FF4A871119112904F
:1046E0000720139008A8FEF7B9F818B1FFE7FCF708
:1046F000DBF8FFE70F2003900220049000200590D4
:104700004FF4A05006904FF48050079003A8052165
:10471000FDF7E6FE18B1FFE7FCF7C6F8FFE714B0B7
:1047200080BD00004EF68851CEF20001086840F4CA
:10473000700008607047000080B582B001908DF86D
:104740000310019800F084FCADF80000BDF80000F3
:104750004FF6FF7188420ED0FFE79DF8030000F589
:1047600000400199BDF8002002F00F0201EB820128
:10477000C1F88403FFE79DF8000002B080BD00008F
:1047800080B588B007900691ADF816208DF81530E9
:1047900007989DF81510069ABDF816C06B464FF0A5
:1047A000000ECDF810E0C3F80CE0C3F808C05A6062
:1047B00001221A60022301F0D1FA049808B080BDEA
:1047C00080B588B084460A98CDF81CC00691ADF833
:1047D00016208DF815308DF81400079890F81D03F9
:1047E00020B1FFE700208DF81400FFE707989DF83F
:1047F0001510069ABDF816C09DF814E06B46C3F874
:104800000CE0C3F808C05A6001221A60002204922A
:10481000022301F0A3FA049808B080BD80B584B0EB
:1048200003900398D0F87C03C06901900398019924
:104830004031FCF741F88DF80B009DF80B0030B9C2
:10484000FFE70398D0F8D4230221904709E09DF8B0
:104850000B00032803D1FFE7FFE7FFE700E0FFE7D6
:10486000FFE79DF80B0004B080BD000080B582B06A
:1048700001900198D0F87C03C069009000980078FE
:1048800070B1FFE701980099097800F049FA0198A2
:104890000099097800F086FB009900200870FFE776
:1048A0000098007B70B1FFE701980099097B00F048
:1048B00037FA01980099097B00F074FB00990020F9
:1048C0000873FFE70098407B70B1FFE701980099FB
:1048D000497B00F025FA01980099497B00F062FBC2
:1048E000009900204873FFE70198D0F87C03C06965
:1048F00060B1FFE70198D0F87C03C069FBF7E7FCE3
:104900000198D0F87C130020C861FFE7002002B0B6
:1049100080BD0000B0B58AB008900898022201233B
:10492000114600F0E9FA8DF81E009DF81E00FF28E0
:1049300005D0FFE79DF81E00022806D3FFE7FFE73A
:10494000FFE702208DF827003BE108989DF81E1034
:1049500001F036FF8DF81F009DF81F0020B1FFE722
:1049600002208DF827002CE15020FBF781FC0899EC
:10497000D1F87C13C8610898D0F87C03C069069010
:10498000069830B9FFE7FFE7FFE702208DF8270020
:1049900017E106985021FBF739FD089A9DF81E0093
:1049A0001A2110FB012090F84E030006002814D5B0
:1049B000FFE7089A9DF81E001A2110FB012090F8CD
:1049C0004E03069A5070089A9DF81E0010FB0120B5
:1049D000B0F8500306994881FFE70898069949788E
:1049E000FFF7AAFE069908700898DDF818E09EF80F
:1049F00000109EF8012090F81C3390F81DC3BEF8FB
:104A00000A40EE46CEF808400324CEF80440CEF823
:104A100000C001F0E5F9089806990978002205928E
:104A200001F03AF9059B08980A211A4600F064FA49
:104A30008DF81E009DF81E00FF2805D0FFE79DF8A9
:104A40001E00022806D3FFE7FFE7FFE702208DF8EC
:104A50002700B6E0089A9DF81E001A2110FB0120DD
:104A600090F84E030006002814D5FFE7089A9DF839
:104A70001E001A2110FB012090F84E03069AD073F5
:104A8000089A9DF81E0010FB0120B0F8500306990B
:104A9000488313E0089A9DF81E001A2110FB01209C
:104AA00090F84E03069A9073089A9DF81E0010FB2A
:104AB0000120B0F8500306990883FFE7089A9DF893
:104AC0001E001A2110FB012090F856030006002852
:104AD00014D5FFE7089A9DF81E001A2110FB01204B
:104AE00090F85603069AD073089A9DF81E0010FBA2
:104AF0000120B0F858030699488313E0089A9DF8FE
:104B00001E001A2110FB012090F85603069A90739C
:104B1000089A9DF81E0010FB0120B0F85803069972
:104B20000883FFE708980699897BFFF705FE069939
:104B3000487308980699C97BFFF7FEFD069908732C
:104B40000898DDF818E09EF80D109EF80E2090F8F9
:104B50001C3390F81DC3BEF81840EE46CEF808404E
:104B60000224CEF80440CEF800C001F039F90898CC
:104B7000DDF818E09EF80C109EF80F2090F81C331A
:104B800090F81DC3BEF81A50EE46CEF80850CEF885
:104B90000440CEF800C001F023F9069800220492E8
:104BA00080F84C2008980699497B01F075F8049A22
:104BB00008980699097B01F06FF804988DF8270092
:104BC000FFE79DF827000AB0B0BD000081B000905B
:104BD00001B0704780B584B0039001208DF80B00C0
:104BE00000208DF80A000398D0F87C03C06901907A
:104BF000019890F84C0001460091042800F27C8056
:104C00000099DFE801F003072362690000208DF8B6
:104C10000B0072E003980199896CFFF7DDFC8DF8B9
:104C20000A009DF80A0028B9FFE70199022081F8DF
:104C30004C000AE09DF80A00012805D0FFE7019921
:104C4000042081F84C00FFE7FFE756E00398019944
:104C50004031FBF731FE8DF80A009DF80A0040BB99
:104C6000FFE70199002081F84C00019991F8440078
:104C7000896C097988421BD1FFE7019991F84600B8
:104C8000896C8979884213D1FFE7019991F8450031
:104C9000896C497988420BD1FFE70199086C896CCE
:104CA0000968884204D1FFE70398FFF78FFFFFE709
:104CB0000AE09DF80A00012805D0FFE701990420C9
:104CC00081F84C00FFE7FFE717E00398FBF722FDB0
:104CD0000398FBF7C1FC10E00398002100F02EF8C8
:104CE0008DF80A009DF80A0028B9FFE70199002015
:104CF00081F84C00FFE700E0FFE79DF80B0004B0EF
:104D000080BD000081B0009001B0704781B000907C
:104D1000002001B07047000081B0009001B07047E2
:104D200080B582B001908DF8031001989DF80310B2
:104D300000F050FE002002B080BD000080B582B0BF
:104D400001908DF8031001988078012810D1FFE7B9
:104D500001990220087401990120487401990020EA
:104D600048829DF80310019A91820199C882FFE759
:104D700001980022114600F023F802B080BD000027
:104D800080B588B007900691ADF816208DF81530E3
:104D900007989DF81510069ABDF816E0EC4600231A
:104DA0000493CCF80C30CCF808E0CCF804200122B5
:104DB000CCF8002000F0D2FF049808B080BD0000BD
:104DC00080B584B003900291ADF8062001208DF8E3
:104DD00005000398807801460091012804D0FFE780
:104DE0000098022810D030E0029803998860BDF83E
:104DF000060003998881039901200876039A02210D
:104E000091708DF8050021E0039800F0FFF98DF80E
:104E100005009DF8050028B1FFE79DF8050003286F
:104E200007D1FFE7039901208870039900200876D5
:104E30000AE09DF80500022804D1FFE7039901204C
:104E4000887000E0FFE7FFE700E0FFE79DF805005E
:104E500004B080BD80B588B084460A98CDF81CC0E7
:104E60000691ADF816208DF815308DF814000798CE
:104E700090F81D0320B1FFE700208DF81400FFE734
:104E800007989DF81510069ABDF816C09DF814E015
:104E90006B46C3F80CE0C3F808C05A6001221A60E0
:104EA000002304931A4600F059FF049808B080BD0F
:104EB00080B588B0079006918DF8172007989DF867
:104EC0001710DDF818C06A4600230493D3604FF032
:104ED000080EC2F808E0C2F804C013601A4600F0D9
:104EE0003DFF049808B080BD80B582B00190019864
:104EF000FBF7FAFC02B080BD86B004908DF80F106D
:104F00008DF80E208DF80D3000208DF803000290F2
:104F1000049800F54E700190FFE79DF8030001280A
:104F200037D8FFE7019A9DF803001A2110FB0120F2
:104F30000A300290029840799DF80F10884205D0FF
:104F4000FFE79DF80F00FF281DD1FFE70298807949
:104F50009DF80E10884205D0FFE79DF80E00FF284F
:104F600011D1FFE70298C0799DF80D10884205D055
:104F7000FFE79DF80D00FF2805D1FFE79DF803002E
:104F80008DF8170009E09DF8030001308DF803004B
:104F9000C3E7FF208DF81700FFE79DF8170006B064
:104FA0007047000082B001908DF803109DF8030057
:104FB0000F280CD8FFE701989DF8031000EB810142
:104FC000D1F884036FF3DF30C1F88403FFE70020DA
:104FD00002B0704780B584B084460698CDF80CC006
:104FE0008DF80B10ADF808200193ADF8020003987E
:104FF0008078012823D1FFE79DF80B0040F0800066
:1050000003990874039906204874BDF808000399B1
:1050100048829DF809104FF44070B0EB012F05D184
:10502000FFE7039940F20940888203E003990020DA
:105030008882FFE7BDF802000399C882FFE7039862
:105040000199BDF80220FFF7BBFE04B080BD00004F
:1050500083B0019000208DF803008DF80300FFE776
:105060009DF803000F2817D8FFE701989DF803105B
:1050700000EB810090F885030006002805D4FFE7C7
:105080009DF80300ADF80A000BE0FFE79DF8030070
:1050900001308DF80300E3E74FF6FF70ADF80A002A
:1050A000FFE7BDF80A0003B07047000083B002902C
:1050B00001910298027801990888104408800298AA
:1050C000017808440090009803B0704780B584B020
:1050D0000390ADF80A1003981C3001900398019BCF
:1050E000BDF80A106A46116000214FF40072FFF704
:1050F00071FF8DF809009DF8090048B9FFE7039892
:105100000199BDF80A2000F099FE8DF80900FFE72B
:105110009DF8090004B080BD80B584B003908DF87F
:105120000B10039800F58E739DF80B106A46116002
:1051300000214FF48072FFF74DFF8DF80A009DF8B3
:105140000A0050B9FFE7039901F2263001F58E718C
:105150009DF80B2000F09EFFFFE79DF80A0004B0C9
:1051600080BD000080B586B005908DF813100392C5
:10517000ADF80A3005989DF8131001F5407200F55E
:105180008E73BDF80A10EC46CCF800100021FFF732
:1051900021FF8DF809009DF8090048B9FFE705983F
:1051A00000F58E700399BDF80A2001F0A3F8FFE71F
:1051B0009DF8090006B080BD82B08DF80700002080
:1051C0008DF806009DF8070001460091032814D8C9
:1051D0000099DFE801F002060A0E00208DF80600B3
:1051E0000FE002208DF806000BE001208DF806008C
:1051F00007E002208DF8060003E002208DF806008B
:10520000FFE79DF8060002B07047000080B584B04B
:10521000039001208DF80A0000208DF80900039802
:10522000007E0138014601910A2800F26B81019944
:10523000DFE811F00B0015005700660089009D00A3
:10524000D100E000070119014001039800F11001AD
:105250004279FFF72DFE03990220087653E1039867
:10526000417900F053FC8DF809009DF809000128F0
:1052700027D1FFE70398007C00F080008DF80B0039
:105280000398C08A70B1FFE79DF80B00802804D115
:10529000FFE703990320087603E0039905200876C9
:1052A000FFE70DE09DF80B00802804D1FFE703998C
:1052B0000920087603E0039907200876FFE7FFE757
:1052C0000EE09DF80900042805D0FFE79DF80900CD
:1052D000022804D1FFE703990B200876FFE7FFE7D8
:1052E00011E10398D0F8C4030399C8810398816839
:1052F00082890379FFF744FD03990420087602E1CF
:105300000398017900F002FC8DF809009DF809006E
:10531000012804D1FFE7039909200876FFE79DF8EB
:105320000900052804D1FFE703208DF80A0009E0F1
:105330009DF80900042804D1FFE703990B200876A3
:10534000FFE7FFE7DFE00398816882894379EE4653
:105350004FF0010CCEF800C0FFF77CFD0398D0F8A9
:10536000C4030399C881039906200876CBE003980B
:10537000417900F0CBFB8DF809009DF80900012868
:1053800004D1FFE703990720087623E09DF8090080
:10539000052807D1FFE703990C20087603208DF834
:1053A0000A0016E09DF80900022804D1FFE70399DE
:1053B000052008760CE09DF80900042807D1FFE7D6
:1053C00003990B20087602208DF80A00FFE7FFE71B
:1053D000FFE7FFE797E00398037900221146FFF704
:1053E000CFFC0398D0F8C4030399C881039908201F
:1053F000087688E00398017900F088FB8DF80900B1
:105400009DF80900012807D1FFE703990D200876D0
:1054100000208DF80A0013E09DF80900042804D14B
:10542000FFE703990B20087609E09DF8090005289D
:1054300004D1FFE703208DF80A00FFE7FFE7FFE74D
:1054400061E0039843796A46012111600022114608
:10545000FFF700FD0398D0F8C4030399C8810399AE
:105460000A2008764FE00398417900F04FFB8DF851
:1054700009009DF80900012807D1FFE700208DF8F9
:105480000A0003990D20087613E09DF80900022810
:1054900004D1FFE703990920087609E09DF8090087
:1054A000042804D1FFE703990B200876FFE7FFE704
:1054B000FFE728E0039A507E411CC8B251760228CB
:1054C00006D8FFE70399012008760399887018E051
:1054D0000398D0F8D42306219047039900204876FA
:1054E000FFE7FFE703984179FFF75CFD0398017937
:1054F000FFF758FD03990020087002208DF80A007C
:10550000FFE700E0FFE79DF80A0004B080BD00005F
:1055100010B588B0079001208DF81B008DF81A0097
:105520000798407801460591072800F2F88105990F
:10553000DFE811F008006A00A700F80031016B01F4
:105540009901C70107980821FFF7E6FD8DF81A00B9
:105550009DF81A0078BBFFE7079991F82D03887131
:10556000079901204870079890F81C3390F81D2384
:10557000017990F806E0EC46CCF808E04FF0000E18
:10558000CDF810E0CCF804E0CCF80020802200F048
:1055900027FC049A079890F81C3390F81DC34179B2
:1055A0008479EE46CEF80840CEF80420CEF800C04C
:1055B00000F016FC27E09DF81A00032821D1FFE730
:1055C000FFE7FFE7079991F81E03013081F81E03FA
:1055D000079890F81E03042806D3FFE7FFE7FFE7CC
:1055E00007990D2008700BE007984179FFF7DAFC66
:1055F00007980179FFF7D6FC079900200870FFE7AC
:1056000000E0FFE7FFE78BE107981221FFF784FD39
:105610008DF81A009DF81A0040B9FFE7FFE7FFE791
:10562000FFE7FFE707990220487029E09DF81A007C
:10563000032823D1FFE7FFE7FFE7079991F81E034F
:10564000013081F81E03079890F81E03042806D342
:10565000FFE7FFE7FFE707990D2008700DE00798C7
:105660004179FFF79FFC07980179FFF79BFC0799A9
:105670000020487007990870FFE700E0FFE7FFE7A8
:105680004EE10798012101F0C3F88DF81A009DF84A
:105690001A00A0BBFFE70220FFF726FC07990120B4
:1056A00081F81C03FFE7FFE707990320487007987C
:1056B00090F81C3390F81D23017990F806E0EC4631
:1056C000CCF808E04FF0000ECDF80CE0CCF804E088
:1056D000CCF80020802200F083FB039A079890F812
:1056E0001C3390F81DC341798479EE46CEF808400A
:1056F000CEF80420CEF800C000F072FB11E09DF857
:105700001A0003280BD1FFE7FFE7FFE7FFE7FFE7FA
:1057100007990D20087007990020487000E0FFE706
:10572000FFE7FDE007980921FFF7D0FC8DF81A008C
:105730009DF81A0020B9FFE707990420487029E076
:105740009DF81A00032823D1FFE7FFE7FFE7079939
:1057500091F81E03013081F81E03079890F81E038C
:10576000042806D3FFE7FFE7FFE707990D2008703D
:105770000DE007984179FFF715FC07980179FFF7CD
:1057800011FC07990020487007990870FFE700E0B6
:10579000FFE7FFE7C4E00798B0F83A13FFF796FC7D
:1057A0008DF81A009DF81A0020B9FFE70799052027
:1057B000487029E09DF81A00032823D1FFE7FFE78E
:1057C000FFE7079991F81E03013081F81E0307983F
:1057D00090F81E03042806D3FFE7FFE7FFE70799C9
:1057E0000D2008700DE007984179FFF7DBFB079863
:1057F0000179FFF7D7FB07990020487007990870D7
:10580000FFE700E0FFE7FFE78AE0079890F834033E
:1058100010B3FFE7079890F8341300F58E72FF235A
:10582000FFF7A0FC8DF81A009DF81A0030B9FFE7C9
:10583000FFE7FFE70799062048700CE09DF81A0083
:10584000032806D1FFE7FFE7FFE707990620487026
:1058500000E0FFE7FFE705E0FFE7FFE70799062025
:105860004870FFE75CE0079890F8350310B3FFE756
:10587000079890F8351300F58E72FF23FFF772FC3E
:105880008DF81A009DF81A0030B9FFE7FFE7FFE72F
:105890000799072048700CE09DF81A00032806D1EC
:1058A000FFE7FFE7FFE707990720487000E0FFE701
:1058B000FFE705E0FFE7FFE7079907204870FFE7EC
:1058C0002EE0079890F8360310B3FFE7079890F89A
:1058D000361300F58E72FF23FFF744FC8DF81A0093
:1058E0009DF81A0030B9FFE7FFE7FFE700208DF8C9
:1058F0001B000CE09DF81A00032806D1FFE7FFE724
:10590000FFE700208DF81B0000E0FFE7FFE705E060
:10591000FFE7FFE700208DF81B00FFE700E0FFE74F
:105920009DF81B0008B010BD80B582B001900198B1
:1059300000780B280BD1FFE70198D0F87C0330B139
:10594000FFE70198D0F87C1389698847FFE702B028
:1059500080BD000080B586B0049003918DF80B20C7
:10596000049830B9FFE7FFE7FFE702208DF8170042
:105970002BE09DF80B00049981F8CC0304990020DA
:105980000190C1F87C030499C1F880030498FAF7E8
:105990003FFF0198049981F82303049981F82003BB
:1059A000049981F82103049981F82203039828B10E
:1059B000FFE703980499C1F8D403FFE7049800F0C7
:1059C000C1F800208DF81700FFE79DF8170006B01A
:1059D00080BD000080B582B001908DF803100020DA
:1059E0008DF802008DF801000198D0F8D0039DF8E1
:1059F0000310FBF7D9F98DF802009DF80200FFF7BC
:105A0000DBFB8DF801009DF8010002B080BD0000B5
:105A100081B000900099012081F8200300990020B6
:105A200081F82103009981F8220301B0704700003A
:105A300080B582B001900199012081F8210301997C
:105A40000020009081F82003019981F82303019838
:105A500000F06AF901980179FFF7A4FA01984179F9
:105A6000FFF7A0FA009802B080BD000080B582B0B8
:105A700001908DF80310019890F8CC03012805D10E
:105A8000FFE79DF80300FEF799FBFFE7C820FAF750
:105A90002BFF002002B080BD80B582B001908DF850
:105AA00003100198D0F8D0039DF80310FBF76EF9AE
:105AB00002B080BD80B584B0039001208DF80B004A
:105AC0000398D0F8D003FBF749F90146019140B1A2
:105AD000FFE70198012808D0FFE70198022808D0C5
